S013000050574D5F64696D6D696E672E73726563D9
S11300000C942A000C943C000C943C000C943C008E
S11300100C943C000C943C000C943C000C943C006C
S11300200C943C000C943C000C943C000C943C005C
S11300300C943C000C943C000C943C000C943C004C
S11300400C943C000C943C000C943C000C943C003C
S11300500C943C0011241FBECFE5D8E0DEBFCDBF19
S113006020E0A0E6B0E001C01D92A336B207E1F79C
S11300700E94AE000C94FA000C9400004130A1F5EB
S1130080813089F028F08230C9F0833011F108956D
S11300902AB381E090E002C0880F991F6A95E2F7C5
S11300A0822B8ABB089527B381E090E002C0880FB9
S11300B0991F6A95E2F7822B87BB089524B381E0E8
S11300C090E002C0880F991F6A95E2F7822B84BBE7
S11300D0089521B381E090E002C0880F991F6A95CA
S11300E0E2F7822B81BB0895411137C0813091F032
S11300F028F08230D9F0833029F108952AB381E0C1
S113010090E002C0880F991F6A95E2F780958223D8
S11301108ABB089527B381E090E002C0880F991F3D
S11301206A95E2F78095822387BB089524B381E022
S113013090E002C0880F991F6A95E2F780958223A8
S113014084BB089521B381E090E002C0880F991F19
S11301506A95E2F78095822381BB089583E08093BA
S113016062000E94E8008FB780688FBF80E690E04D
S11301700E94F3000E94BD00FDCFCF93DF93C3E044
S1130180D0E00AC08C2F0E94F8008FE39CE901970D
S1130190F1F700C000002196CE3FD10598F38FE31C
S11301A09CE90197F1F700C00000CDEFD0E00AC050
S11301B08C2F0E94F8008FE39CE90197F1F700C0AF
S11301C000002197C330D10598F7DF91CF910895AE
S11301D041E063E081E00E943E0040E067E081E0AE
S11301E00E943E000895FC018281886683BF0895C1
S10B01F08CBF0895F894FFCFC1
S9030000FC
