:100000000C942A000C943C000C943C000C943C0092
:100010000C943C000C943C000C943C000C943C0070
:100020000C943C000C943C000C94D5000C943C00C7
:100030000C943C000C943C000C943C000C943C0050
:100040000C943C000C943C000C943C000C943C0040
:100050000C943C0011241FBECFE5D8E0DEBFCDBF1D
:1000600020E0A0E6B0E001C01D92A436B207E1F79F
:100070000E94AE000C94EB000C9400004130A1F5FE
:10008000813089F028F08230C9F0833011F1089571
:100090002AB381E090E002C0880F991F6A95E2F7C9
:1000A000822B8ABB089527B381E090E002C0880FBD
:1000B000991F6A95E2F7822B87BB089524B381E0EC
:1000C00090E002C0880F991F6A95E2F7822B84BBEB
:1000D000089521B381E090E002C0880F991F6A95CE
:1000E000E2F7822B81BB0895411137C0813091F036
:1000F00028F08230D9F0833029F108952AB381E0C5
:1001000090E002C0880F991F6A95E2F780958223DC
:100110008ABB089527B381E090E002C0880F991F41
:100120006A95E2F78095822387BB089524B381E026
:1001300090E002C0880F991F6A95E2F780958223AC
:1001400084BB089521B381E090E002C0880F991F1D
:100150006A95E2F78095822381BB0895E1E6F0E09D
:100160008EE3818384E0828341E063E081E00E944A
:100170003E008FB780688FBF81E690E00E94CB0081
:10018000809160008D37E1F7109260009BB380E1B1
:1001900089278BBBF5CFFC019281986993BF99B7F2
:1001A000916099BF81818CBF08951F920F920FB605
:1001B0000F9211248F93809160008D3718F48F5F18
:1001C0008093600088B7826088BF8F910F900FBEC8
:0A01D0000F901F901895F894FFCFD0
:00000001FF
